:10000000004000204D2900008D2900008F290000AC
:1000100000000000000000000000000000000000E0
:100020000000000000000000000000009129000016
:100030000000000000000000932900009529000046
:1000400097290000972900009729000097290000B0
:100050009729000000000000972900009729000060
:10006000972900005D0900009729000097290000EA
:100070009729000097290000972900009729000080
:100080009729000097290000972900009729000070
:100090009729000097290000972900009729000060
:1000A00097290000972900000000000000000000D0
:1000B0000000000000000000000000000000000040
:1000C00010B5064C2378002B07D1054B002B02D02E
:1000D000044800E000BF0123237010BD1C02002073
:1000E00000000000144D0000044B10B5002B03D09D
:1000F0000349044800E000BF10BDC04600000000F6
:1001000020020020144D0000164B002B00D1144B90
:100110009D46402292029A1A924600218B460F4633
:100120001348144A121A00F065F80F4B002B00D048
:1001300098470E4B002B00D0984700200021040068
:100140000D000D48002802D00C4800E000BF00F070
:100150002DF82000290000F033FB00F011F8C04614
:100160000000080000400020000000000000000027
:100170001C020020E413002000000000000000002A
:10018000084B10B50400002B02D0002100E000BF96
:10019000054B1868836A002B00D09847200000F0B8
:1001A00031F8C04600000000684B000070B5002622
:1001B0000C4D0D4C641BA410A64209D1002604F07E
:1001C000C7FC0A4D0A4C641BA410A64205D170BDA1
:1001D000B300EB5898470136EEE7B300EB58984769
:1001E0000136F2E71402002014020020140200205D
:1001F0001802002003001218934200D170471970B2
:100200000133F9E7FEE7C046842170B5394A490059
:100210005358012BFCD100235350A3238421DB002E
:10022000D458344A49005358012BFCD10023535071
:10023000A3238421DB00D5582E4A49005358012BB3
:10024000FCD100235350A3238421DB00D058294A3A
:1002500049005358012BFCD100235350A323DB004A
:10026000D358FF220004120410401B06C0182B06AE
:100270001B0CC018FF2384211C401E4A0019490092
:100280005358012BFCD100235350A323FF24FE21FC
:10029000DB00D3581C40184BD150164A1E3153581E
:1002A000012BFCD100235350134B1249D4508E2202
:1002B00052008B58012BFCD100238B50002C0ED008
:1002C0008E2100250B4A0C4E2418490003789351C7
:1002D0005358012BFCD1013055508442F6D1ED2109
:1002E000044A054BD1502F315358012BFCD1002328
:1002F000535070BD002000401C050000F0B5CE46F4
:100300004746842180B5444A49005358012BFCD10B
:1003100000235350A3238421DB00D0583E4A4900D8
:100320005358012BFCD100235350A3238421DB001D
:10033000D558394A49005358012BFCD1002353505A
:10034000A3238421DB00D458334A49005358012B9E
:10035000FCD100235350A323DB00D358FF222404F5
:10036000120414401B06E4182B061B0CE418FF2390
:1003700084211840284A241849005358012BFCD1E5
:1003800000235350A323FF26FD21DB00D3581E403A
:10039000224BD150204A1F315358012BFCD100234E
:1003A00053501E4B1C49D6508E2252008B58012BA5
:1003B000FCD100238B50002E1FD0A322D2009046E8
:1003C000FF229446154A84208E2100259146124B27
:1003D0003619400049001A58012AFCD142466746A6
:1003E0001D509A5822703A404F46DA515A58012A05
:1003F000FCD101345D50B442EDD1ED21064A074BEA
:10040000D1502F315358012BFCD1002353500CBC39
:1004100090469946F0BDC046002000401C050000F3
:10042000F0B5DE4657464E4645468421E0B5594A6A
:1004300087B049005358012BFCD100235350A3230C
:100440008421DB00D058534A49005358012BFCD17A
:1004500000235350A3238421DB00D5584D4A490083
:100460005358012BFCD100235350A3238421DB00DC
:10047000D458484A49005358012BFCD1002353500B
:10048000A323FF21DB00D258090423040B401206EA
:100490009B182A06120C9B18FF22842110401B185F
:1004A0003C4A039349005358012BFCD1002353507D
:1004B000A321C9005358FF221A4002924ED00023B4
:1004C00084228020002599468846324B32495200CA
:1004D000C000039C4C44A2469C58012CFCD14446CD
:1004E0009D501C59A3469C58012CFCD144469D505C
:1004F0001E599C58012CFCD144469D501C59A446C1
:100500009C58012CFCD1009444469D501F596446D0
:100510000197FF2724043F043C40A446019F360670
:100520003F06360C6744BF195C46FF262640BF19BC
:100530001A4C009E0E510C58002CFCD054462760DB
:100540000C58002CFCD0154C0D510C58002CFCD034
:100550000424A446029CE144A145BAD3FC238E2185
:10056000002405A803800F3B83700A4A04AB0C4D9E
:10057000DE1D4900037853515358012BFCD1013043
:1005800054508642F6D107B03CBC90469946A246EC
:10059000AB46F0BD0020004000E001400405000033
:1005A0001C050000F0B5D6464F4646468421C0B52E
:1005B0002D4A49005358012BFCD100235350A3234B
:1005C000FF27F821DB00D3581F40284BD150264A83
:1005D00024315358012BFCD100235350234B224983
:1005E000D7508E2252008B58012BFCD100238B5008
:1005F000002F35D0A322D2009146FF2290461B4AFD
:1006000084248E21002500269446194B64009A46C6
:10061000154B49001A59012AFCD14A4650461E5131
:100620009A5842554046024060461A505A58012A8C
:10063000FCD10135EDB25E50BD42EBD3ED210A4A4B
:100640000A4BD1502F315358012BFCD10023504677
:10065000535001F05FFC1CBC90469946A246F0BD89
:10066000034B9A46EAE7C046002000401C05000004
:100670005402002070B582B0FF280CD0FE2823D091
:10068000FD281ED0FC2822D0FB2823D0F82800D13A
:1006900089E002B070BD454B6A460093ED238E2180
:1006A000684600241371561D414D424A49000378A3
:1006B00053515358012BFCD101305450B042F6D164
:1006C000E7E7FFF71BFEE4E7FFF79EFDE1E7FFF733
:1006D000A7FEDEE78421374A49005358012BFCD19D
:1006E00000235350A3238421DB00D458314A49000E
:1006F0005358012BFCD100235350A3238421DB004A
:10070000D5582C4A49005358012BFCD10023535093
:10071000A3238421DB00D058264A49005358012BDB
:10072000FCD100235350A323DB00D358FF22000445
:10073000120410401B06C0182B061B0CC018FF2308
:1007400002211C401C4A1D4B0019D1508021C900B8
:100750005358002BFCD0A1238021DB00D050164A37
:10076000C9005358002BFCD00021144BD1508022DB
:100770001149D2008B58002BFCD06A46FB238E21F6
:100780006846002413800E3B9370D61C084D094A1E
:100790004900037853515358012BFCD10130545078
:1007A0008642F6D175E7FFF7FDFE72E7FF02000112
:1007B0001C0500000020004000E00140040500008E
:1007C000F0B5D6464F464646EC23C0B5A0260322D8
:1007D0000027F605DB00F250494B4A4CF7504A4BD4
:1007E0008425994618234A46A3501922474B6D0089
:1007F000E250474B474AE2500422243BE250012397
:10080000A36023606751984601F07EFEA221424B0F
:10081000424AC9009F5004329F505F504146D96000
:100820004031FF315F50FA20A8218001C9005850A3
:10083000C121802089004002585040460539FF39C7
:1008400058503748016041461960802110234846BE
:100850008901B1503350334898460768324B3348CA
:10086000C046C046C046C046C046C046C046C04658
:100870009F4200D0C0460138F2D14B46F15043466A
:10088000B35001F063FB2A4B2A4F1E6898462A4B4F
:100890003236994600239A4643461B689E4212D937
:1008A0006359012B15D04B461B68002B20D13B68A8
:1008B000002BF1D0534681203B6001F079FB434689
:1008C0001B689E42ECD801F0A3FE323601F0D8FA44
:1008D000E2E76359012BFCD153466351A323DB00AC
:1008E000E058C0B2FFF7C6FE4B461B68002BDED0B7
:1008F0004B46524680201A6001F05AFBD7E7C046AB
:1009000064070000002000400C05000014050000F2
:100910002405000000A04E000090004004050000E7
:1009200000E100E0100200200024F40020A10700F4
:10093000380200203C130020501300208E21054A6D
:10094000054B4900D0505358012BFCD10023535084
:100950007047C046002000401C050000A023002175
:1009600010B5064A5B00D150054A136801335B009D
:100970005B08136001F076FE10BDC0460090004099
:1009800038020020014B18687047C046380200202A
:100990007047C046064A1368591C1160054918780B
:1009A0000A68131D0B606423434313607047C046FD
:1009B000D4020020380300200C490B685A1C0A603E
:1009C0009A1C18780A605A7812021018DA1C0A6009
:1009D0009A7812041218181D0860DB7804491B0667
:1009E0009B180A68101D086013607047D40200202D
:1009F0003803002030B5084A08481368591C1160B4
:100A000001681C780D1D0233136005600B601368CC
:100A10009C466444146030BDD4020020380300209A
:100A200010B5024B1B68984710BDC0463403002028
:100A30000B4A1368591C11601B780A4A5BB2126892
:100A4000002B09DB9B00D31A143B07490A68101DD1
:100A500008601B681360704701339B00D31AF4E7EA
:100A6000D4020020D8020020380300200B4B1A6863
:100A7000111F0B4A19601368581C10601B78094A33
:100A80005BB21268002B05DB9B00D31A143B0A688B
:100A90001A60704701339B00D31AF8E7380300202F
:100AA000D4020020D80200200D4A0E491368043BEE
:100AB000136018680B685A1C0A601B780A4A5BB2FC
:100AC0001268002B07DB9B00D31A143B1A6894466C
:100AD00060441860704701339B00D31AF6E7C046A4
:100AE00038030020D4020020D802002030B5154978
:100AF0000B685A1C0A609C1C18780C605A78124BC0
:100B0000120212181868051D1D6004600F4CC020E9
:100B1000A4468002101862440A601A680178101D09
:100B20001860116019680A4A081D1860106808608A
:100B30001968081D18600748006808601B68136082
:100B400030BDC046D402002038030020010003005D
:100B5000D802002034030020F8B5144C144F154E71
:100B6000154D05E09B009B5998472B78002B13D11E
:100B700023685A1C22601B785A1ED2B2FD2A0FD855
:100B80003F2BEFD95AB2002A07DB403B9B00DB59D1
:100B900098472B78002BEBD0F8BDFFF7A7FFE4E7D1
:100BA0000022064B1B681A60F6E7C046D4020020FC
:100BB000EC01002064000020DC020020E0020020A4
:100BC00010B50E490B68002B16D00D4A181F106087
:100BD00004680C4804601800083810600068086059
:100BE00019000C3911600968103B13601C68064835
:100BF00089005B1A0460136010BDC046D802002053
:100C00003803002034030020D402002030B5104AFD
:100C100010491368043B13601C680B68181F1060B0
:100C200005680D4805601800083810600068086005
:100C300019000C3911600968103B136089001D68A8
:100C400006485B1A191D056011601C6030BDC04666
:100C500038030020D802002034030020D4020020F2
:100C600080210022184B49005A5049185A5001312E
:100C7000FF315A500131FF315A500131FF315A5082
:100C80000131FF315A500131FF315A500131FF31EA
:100C90005A500131FF315A500131FF315A50013160
:100CA000FF315A500131FF315A500131FF315A5052
:100CB0000131FF315A500131FF311A605A50034B54
:100CC00001321A707047C0463C030020DC0200204D
:100CD00010B50A4B0A4A1968081D186010680860A8
:100CE0001868011D196007490C6804601B680648F4
:100CF000103B08601B68136010BDC046380300201D
:100D0000D402002034030020E519000010B50A4B7E
:100D10000A4A1968081D1860106808601868011DE3
:100D2000196007490C6804601B6806480C3B0860A2
:100D30001B68136010BDC04638030020D402002099
:100D4000340300203D19000030B50C4A1368191F08
:100D50001160083B0C681360186800280CD0116003
:100D60000749086818601068064B051D15601A6869
:100D70000260054A1C600A6030BDC046380300208E
:100D800034030020D4020020D90D000030B50E4BF2
:100D90001A68111F19600868043919600C3A0C6848
:100DA0001A601568002D00D1040019600749086811
:100DB00010601868064A051D1D6013680360054B26
:100DC00014600B6030BDC04638030020340300209F
:100DD000D4020020D90D0000064A1368191F1160C3
:100DE00008680549083B136008601A68034B1A60DD
:100DF0007047C04638030020D4020020340300208E
:100E000010B5064A1368181F1060083B016813608C
:100E10001C6810600919196010BDC0463803002015
:100E200010B5064A1368181F1060083B0468136069
:100E300019681060091B196010BDC04638030020F6
:100E4000F8B5CE46474680B5114D2C68231F2B6060
:100E5000083C98461B682C602068994603F088F986
:100E6000060048460F0003F083F902000B00300033
:100E7000390002F0BFFE0022064B02F0C5FB4346DC
:100E80002B6003F03FF920600CBC90469946F8BDFA
:100E90003803002000005940F8B5CE46474680B5DB
:100EA000114D2C68231F2B60083C98461B682C6052
:100EB0002068994603F05CF9060048460F0003F0ED
:100EC00057F902000B003000390002F09DFB0022B0
:100ED000064B02F08FFE43462B6003F013F92060AF
:100EE0000CBC90469946F8BD3803002000005940DC
:100EF000F8B5114D2C68261F2E60306802F0FAFA02
:100F00000E4902F0A9F802F0D5FA0700083C2C605F
:100F1000206802F0EFFA094902F09EF802F0CAFADE
:100F2000390001F017FF002900DAC91964234B4387
:100F30002E602360F8BDC046380300200000C84280
:100F400010B508490A68141F0C60083A23680A6043
:100F500010680C601B1A5842434164205B420340F6
:100F6000136010BD3803002010B508490A68141F2B
:100F70000C60083A23680A6010680C601B1A581E3F
:100F8000834164205B420340136010BD380300209E
:100F900030B5074A64201368191F1160083B0C68BC
:100FA00013601D68AC4200DB00201160186030BD8A
:100FB0003803002030B5074A64201368191F1160F8
:100FC000083B0C6813601D68AC4200DC0020116017
:100FD000186030BD3803002010B5064A1368181F8A
:100FE0001060083B046813601968106021401960A4
:100FF00010BDC0463803002010B5064A1368181FFC
:101000001060083B016813601C6810602143196080
:1010100010BDC0463803002010B5064A1368181FDB
:101020001060083B016813601C6810606140196023
:1010300010BDC04638030020064A11680B1F13601C
:1010400018681160002802D000221A6070476422DC
:101050001A60FBE73803002010B5074A1368191F10
:101060001160083B0C6813601868642101F08CFD66
:10107000024B8000C45010BD38030020E402002061
:1010800070B5074D64212E68341F2C60206801F074
:101090007BFD044B8000C3582E60236070BDC046AA
:1010A00038030020E402002010B5094A1368191F14
:1010B0001160083B0C6813601868642101F064FD3E
:1010C000044A800083589C466444845010BDC04646
:1010D00038030020E402002010B5DD4A1368043B09
:1010E0001360186802F006FADA4901F0B5FF02F061
:1010F000E1F91038C0B2002800D0D2E0C021D64BB0
:10110000890299601900143119608221D34A49007B
:10111000D34C5A5004315C501C00043158501534E3
:1011200004315850FF3410395C500531FF31CD4C3B
:101130005A5004315C500431585004315850043135
:101140005C1814395C500531FF31C74C5A500431DA
:101150005C50043158500431585004315C18143933
:101160005C50C249C24C5A5004315C50C1495A606B
:10117000585004315850C049D8605C1814395C503C
:10118000BE49BF4C5A5004315C50BE49186158509A
:1011900004315850BC495C1814395C50BB49BC4CF4
:1011A0005A5004315C50BB49585004315850BA4928
:1011B0005C1814395C50B949B94C5A5004315C5030
:1011C000B849585004315850B7495C1814395C502C
:1011D000B649B74C5A50B7495C50B74958500431DA
:1011E0005850B6495C1814395C50B549B54C5A5042
:1011F000B5495C50B549585004315850B4495C1851
:1012000014395C50B349B44C5A50B4495C50B44999
:10121000585004315850B3495C1814395C50B249E5
:10122000B24C5A50B2495C50B249585004315850EF
:10123000B1495C1814395C50B049B14C5A50B149AD
:101240005C50B149585004315850B0495C181439B9
:101250005C50AF49AF4C5A50AF495C50AF49585001
:1012600004315850AE495C1814395C50AD49AE4C4D
:101270005A50AE495C50AE49585004315850AD49AF
:101280005C1814395C50AC495A50AC4AAC4999507E
:10129000AC4A985004329850AB4A9918143A995075
:1012A00010BDC02292021378834200D1FDE16C4A46
:1012B0001378834200D1E0E16A4A1378834200D177
:1012C000C4E1694A1378834200D1A8E1684A1378DF
:1012D000834200D18EE16A4A1378834200D174E1DF
:1012E0006B4A1378834200D15AE16D4A13788342E6
:1012F00000D140E16E4A1378834200D126E1714A61
:101300001378834200D18DE0734A1378834274D0FE
:10131000764A137883425CD0794A1378834244D06A
:101320007C4A137883422CD07F4A1378834213D0AF
:10133000834A13788342B3D1474B7F49474858507B
:101340007E495A5000227F495A5004315A507E4AF1
:101350009918143A9950A3E73F4B72493F4C5C509F
:1013600072495A50002272495A5004315A50714AF7
:101370009918143A9950724A1378834200D08FE733
:10138000DAE7354B6249354C5C5063495A500022CC
:1013900062495A5004315A50614A9918143A995086
:1013A000614A13788342C3D1D6E72B4B53492B4C68
:1013B0005C5054495A50002253495A5004315A50F3
:1013C000524A9918143A9950524A13788342ABD131
:1013D000D7E7214B4449214C5C5045495A500022E3
:1013E00044495A5004315A50434A9918143A995072
:1013F000434A1378834293D1D7E7174B3549174CAB
:101400005C5036495A50002235495A5004315A50DE
:10141000344A9918143A9950344A1378834200D0C8
:101420007AE7D6E70C4B26490C4C5C5026495A50BB
:10143000002226495A5004315A50254A9918143A24
:101440009950254A1378834200D061E7D5E7C0461A
:10145000380300200000C8423C030020590B000064
:1014600004000300080003000C0003000404000053
:10147000100003000C040000140400000405000028
:10148000140003000C050000140500000406000011
:10149000180003000C0600001406000004070000FA
:1014A0001C0003000C0700001407000004080000E3
:1014B00020000300080800000C08000014080000C9
:1014C0000409000024000300080900000C090000C2
:1014D00014090000040A000028000300080A0000A4
:1014E0000C0A0000140A0000040B00002C0003008A
:1014F000080B00000C0B0000140B0000040C000093
:1015000030000300080C00000C0C0000140C00005C
:10151000040D000034000300080D00000C0D000055
:10152000140D0000040E000038000300080E000037
:101530000C0E0000140E0000040F0000080F000045
:101540003C0003000C0F0000140F00005F4B6049CB
:10155000604C5C5060495A50002260495A50043136
:101560005A505F4A9918143A99505E4A1378834248
:1015700000D0C9E656E7554B5B49564C5C500431E8
:101580005A50002259495A5004315A50584A991811
:10159000143A9950574A1378834200D0AFE6D5E702
:1015A0004A4B55494B4C5C5004315A500022534928
:1015B0005A5004315A50524A9918143A9950514A83
:1015C0001378834200D095E6D5E7404B4E49414C15
:1015D0005C5004315A5000224C495A5004315A5040
:1015E0004B4A9918143A99504A4A1378834200D0CA
:1015F0007BE6D5E7354B4849364C5C5004315A50B0
:10160000002246495A5004315A50454A9918143A12
:101610009950444A1378834200D061E6D5E7C1214E
:101620002A4B2C4C89005C5004315A500022043162
:101630005A5004315A50C52292009918143A9950C0
:10164000394A1378834200D045E6D3E781211F4B06
:10165000204C89005C5004315A50002204315A5009
:1016600004315A50852292009918143A99502F4A01
:101670001378834200D029E6D1E78221134B154C21
:1016800049005C5004315A50002204315A50043150
:101690005A50190001321531FF32FF319950244A56
:1016A0001378834200D00CE6D0E7084B09499A60D2
:1016B0000022DA601A611A0014321A601D4A596059
:1016C0001378834200D0F7E5D7E7C0463C030020FB
:1016D00004080000590B0000080800000C08000076
:1016E0001408000024000300040700000C07000099
:1016F0001407000020000300040600000C06000090
:10170000140600001C000300040500000C05000086
:101710001405000018000300040400000C0400007D
:101720001404000014000300100003000C00030068
:101730000800030004000300F8B5114D64212E6871
:10174000331F2B60186801F01FFA083E2E6004005A
:1017500007006421306801F017FA0600844201DABC
:1017600004003E0002F068FD2F68A11B3B1D2B60AA
:10177000013101F0EFFA891964264E433E60F8BD4D
:101780003803002080210022164B49005A50491886
:101790005A500131FF315A500131FF315A50013155
:1017A000FF315A500131FF315A500131FF315A5047
:1017B0000131FF315A500131FF315A500131FF31AF
:1017C0005A500131FF315A500131FF315A50013125
:1017D000FF315A500131FF315A500131FF311A6047
:1017E0005A5070473C03002010B51349134B14485E
:1017F0000B60144B1A681400103C24680460141D1C
:101800001C60114C14601A680068141D1C60106084
:101810000E4A10681A68141D1C6010601A68096866
:10182000101D186011600A4A1B68126813600122BB
:10183000084B1A7010BDC04634030020E5190000A3
:10184000D402002038030020590B0000D8020020E9
:10185000E0020020DC02002010B51249124B1348B0
:101860000B60134B1A68141F24680460141D1C605D
:10187000104C14601A680068141D1C6010600E4A39
:1018800010681A68141D1C6010601A680968101D21
:1018900018601160094A1B68126813600122084B26
:1018A0001A7010BD3403002059180000D402002023
:1018B00038030020590B0000D8020020E00200206D
:1018C000DC02002070B5154C2368043B1D68FFF74F
:1018D00059F823682D1A4F2D1CDC114A043B1A605D
:1018E000104B1A682368191D21601A600E4B1A6884
:1018F0002368191D21601A6023681A1D22600B4A93
:1019000012681A600A4B22681B681A600122094B90
:101910001A7070BD1A1D2260074AE0E738030020E4
:10192000590B0000D4020020D8020020340300200C
:10193000E0020020DC020020C518000030B5224B78
:1019400022481A68111F19600C68002C1FD115005D
:10195000103D2D681E4C1A60256008601A682168C9
:10196000101D186011601B4A11681A68101D18605C
:1019700011601A68111D1960174909681160174A2A
:101980001B68126813600122154B1A7030BD1100DC
:101990001500083919600C680F490C3D1D600C607A
:1019A0002D680B4C103A256010601A682068141DD1
:1019B0001C601060074A10681A68141D1C601060D3
:1019C0001A68101D1860D8E738030020590B000072
:1019D000D4020020D802002034030020E0020020BE
:1019E000DC02002010B51C4B1A68111F1960096831
:1019F000002907D1194B1A49103A19601268194B7E
:101A00001A6010BD110014000839196008681349E4
:101A10000C3C1C6008602468124804601400103CF0
:101A20001C60114C143A14601A680068141D1C6084
:101A300010600E4A10681A68141D1C6010601A6845
:101A40000968101D18601160094A1B68126813604C
:101A50000122084B1A70D4E7380300203403002019
:101A6000E9170000D4020020590B0000D802002022
:101A7000E0020020DC02002010B51C4B1A681100A7
:101A80001039086832280BDC101F186004681848E9
:101A9000083A1A6004601068164A1960106010BD98
:101AA000643808601A68134910000C380068086030
:101AB000101D1860104810601A680968101D186021
:101AC00011600E4A11681A68101D186011601A68BA
:101AD000111D1960064909681160094A1B681268DE
:101AE00013600122074B1A70D9E7C0463803002063
:101AF00034030020D4020020590B0000D80200203B
:101B0000E0020020DC020020F8B5CE46474680B552
:101B10002A4D64212C682600183E306801F034F804
:101B20002300143B1F685968254B9C468300994647
:101B300063464A469A58002F14DDCB0FD0178A42CD
:101B40004341002B14D0231F2B601A681D4B083C07
:101B50001A602C6022681C4B2E601A600CBC9046E8
:101B60009946F8BDCB17D00F91424341002BEAD1E3
:101B700023000C3B196848466346BA181A50221DC8
:101B80002A60114B114A196022601A682B68191DCE
:101B900029601A600E4B1A682B68191D29601A609B
:101BA0002B681A1D2A60074A12681A60094B2A68B6
:101BB0001B681A600122084B1A70CFE73803002017
:101BC000E402002034030020D4020020590B00005E
:101BD000D8020020E0020020DC02002030B5214BBA
:101BE00021481A68111D1960016811601A68111DD9
:101BF00019601E490C6814601D4A0A601A681400B6
:101C0000103C2568322D09DC151F1D602D68083A2F
:101C10001A600D6012681C60026030BD643D256072
:101C20001A6814000C3C24680460141D1C60114CDC
:101C300014601A680068141D1C6010600E4A106859
:101C40001A68141D1C6010601A680968101D18605D
:101C500011600A4A1B68126813600122084B1A704F
:101C6000DBE7C04638030020D40200203403002004
:101C7000791A0000590B0000D8020020E002002071
:101C8000DC02002070B51F4C2368043B1A68022A4E
:101C900001DC236070BD91008A1852001A60FEF7C3
:101CA00071FE2368043B1A689446604418602368F8
:101CB000043B1D68FEF766FE23682D1A4F2D1DDDBF
:101CC0001A1D2260104A1A60104B1A682368191DE9
:101CD00021601A600E4B1A682368191D21601A6072
:101CE00023681A1D22600B4A12681A600A4B226888
:101CF0001B681A600122094B1A70CBE7043B084AA3
:101D0000E1E7C04638030020C5180000D4020020D7
:101D1000D802002034030020E0020020DC02002072
:101D2000590B0000F8B5DE46454657464E46E0B52D
:101D30004A4C642125682B00103B186800F024FFF2
:101D40000C235B429846A844434664210700186868
:101D500000F01AFF083D06006421286800F014FF17
:101D60006423864244DC424613603D4A013E90466D
:101D70007343BF00D35123683A4F1A1D22603A685B
:101D8000394E1A60236864211A1D226032681A6075
:101D9000364B2568336018235B429946A9444B466D
:101DA000186800F0F1FE2B00143B1B689C462B00CA
:101DB000103B196883009B4643465A469A5863462F
:101DC000002B21DDCB0FD0178A424341002B21D0BD
:101DD0002B1F23601B68083D256033602B683B6028
:101DE0004B4623603CBC90469946A246AB46F8BDA4
:101DF00042465B4213601A4B0136984664235E43A9
:101E00004346BF00DE51B6E7CB17D00F91424341A6
:101E1000002BDDD12B000C3B1B6859463B60434631
:101E200062445A502B1D2360114B2B6023683A6883
:101E3000191D21601A600F4B1A682368191D216053
:101E40001A6023681A1D226032681A600A4B2268E1
:101E50001B681A600122094B1A70C3E7380300207F
:101E6000E4020020D402002034030020091B0000FB
:101E7000590B0000D8020020E0020020DC02002004
:101E80008023F0B54F464646D6461B4C5B01C0B595
:101E9000E6181A4B1A4F9A461A4B1B4D99461B4B84
:101EA00098461BE051461A1F2A60126801340A60E6
:101EB0001A004946083A2A601268FF340A601A007C
:101EC00041460C3A2A601268103B0A600021104A11
:101ED0002B6011701B689847B44208D023683C609F
:101EE000002BDFD10134FF342B60B442F6D11CBC8F
:101EF00090469946A246F0BD3C03002034030020E2
:101F0000E0020020D802002038030020D402002084
:101F1000DC020020074B0849084A9950084A094941
:101F2000985000225A5004315A50074A9918143ACE
:101F3000995070473C030020590B0000040F00002B
:101F4000080F00000C0F0000140F00008021002279
:101F5000164B49005A5049185A500131FF315A5016
:101F60000131FF315A500131FF315A500131FF31F7
:101F70005A500131FF315A500131FF315A5001316D
:101F8000FF315A500131FF315A500131FF315A505F
:101F90000131FF315A500131FF315A500131FF31C7
:101FA0005A500131FF311A605A5070473C030020EB
:101FB000C02270B59202137883420CD1CC4B1968C1
:101FC000002900D091E19A601A00CA4C14325C607A
:101FD000D96019611A60C84A1378834215D18021EB
:101FE000C34B49005C58002C00D07BE18225C14ED8
:101FF0006D005E5104355A51862252009C500432C5
:102000009C501A001532FF325A50BC4A1378834252
:1020100014D18021B64B89005C58002C00D05EE1C1
:102020008125B44EAD005E5104355A518322920091
:102030009C5004329C5004329A185A50B04A13787B
:10204000834214D1C021AA4B89005C58002C00D0D7
:1020500042E1C125A74EAD005E5104355A51C3225D
:1020600092009C5004329C5004329A185A50A54A4F
:102070001378834212D180219D4BC9005C58002CFB
:1020800000D026E1A04D9B4E5E5104355A519F4A27
:102090009C5004329C509E4A9A185A509D4A13787C
:1020A000834212D1A021924BC9005C58002C00D071
:1020B0000CE1994D8F4E5E5104355A51974A9C5010
:1020C00004329C50964A9A185A50964A1378834282
:1020D00012D1C021864BC9005C58002C00D0F2E020
:1020E000914D844E5E5104355A51904A9C500432B1
:1020F0009C508F4A9A185A508E4A1378834212D1B4
:10210000E0217B4BC9005C58002C00D0D8E08A4D00
:10211000784E5E5104355A51884A9C5004329C5086
:10212000874A9A185A50874A1378834212D18021DD
:102130006F4B09015C58002C00D0BEE0824D6D4E03
:102140005E51824D5A51824A9C5004329C50814AC1
:102150009A185A50804A1378834212D19021644BC6
:1021600009015C58002C00D0A4E07C4D614E5E510A
:102170007B4D5A517B4A9C5004329C507A4A9A18A3
:102180005A507A4A1378834212D1A021584B090140
:102190005C58002C00D08AE0754D564E5E51754D4E
:1021A0005A51754A9C5004329C50744A9A185A509D
:1021B000734A1378834212D1B0214D4B09015C5808
:1021C000002C00D070E06F4D4A4E5E516E4D5A515A
:1021D0006E4A9C5004329C506D4A9A185A506D4A6F
:1021E0001378834211D1C021414B09015C58002C66
:1021F00057D1694D3F4E5E51684D5A51684A9C50C7
:1022000004329C50674A9A185A50674A137883429E
:1022100011D1D021364B09015C58002C3ED1634DC1
:10222000344E5E51624D5A51624A9C5004329C5069
:10223000614A9A185A50614A1378834211D1E021B9
:102240002B4B09015C58002C25D15D4D294E5E5168
:102250005C4D5A515C4A9C5004329C505B4A9A181F
:102260005A505B4A1378834211D1F021204B090167
:10227000585800280CD1574C1E4D1D51564C1A5120
:10228000564A985004329850554A9A185A5070BD80
:1022900000225A50FBE700225A50E2E700225A502F
:1022A000C9E700225A50B0E700225A5097E70022AF
:1022B0005A507DE700225A5063E700225A5049E7FE
:1022C00000225A502FE700225A5015E700225A5098
:1022D000FBE600225A50E1E600225A50C7E60022EF
:1022E0005A50ABE600225A508FE600221A6072E67E
:1022F0003C030020590B0000040003000800030009
:102300000C00030010000300040400000C04000093
:102310001404000014000300040500000C05000074
:102320001405000018000300040600000C0600005D
:10233000140600001C000300040700000C07000046
:102340001407000020000300040800000808000033
:102350000C08000014080000240003000409000019
:10236000080900000C0900001409000028000300FF
:10237000040A0000080A00000C0A0000140A000009
:102380002C000300040B0000080B00000C0B0000E5
:10239000140B000030000300040C0000080C0000C7
:1023A0000C0C0000140C000034000300040D0000AD
:1023B000080D00000C0D0000140D00003800030093
:1023C000040E0000080E00000C0E0000140E0000A9
:1023D0003C000300040F0000080F00000C0F000079
:1023E000140F000010B50A4A1368043B1360186804
:1023F00000280BDB074C01F07DF8211C00F0B0FC3D
:10240000054900F029FE01F055F810BD034CF2E734
:1024100038030020000048420000C842000048C2C3
:1024200003490A68131D0B6064234343136070471C
:1024300038030020024A1368043B13601868704791
:102440003803002010B5054B05491C68221D1A6091
:1024500000F01AFF01F02EF8206010BD38030020B4
:102460000000C84210B5FFF7BDFF192100F072FC53
:10247000054ACB009B580548C9005B0004318A58C7
:10248000195A0A431A5210BD240100204413002097
:1024900010B5FFF7A7FF192100F05CFC054ACB003F
:1024A0009B580548C9005B00043189581A5A8A4371
:1024B0001A5210BD240100204413002010B5FEF76D
:1024C00061FA014B186010BD4C13002010B5FEF7E7
:1024D00059FA054B1B68C01A01F056F8034900F081
:1024E000BBFDFFF7AFFF10BD4C13002000007A4486
:1024F000A022A223012010B5D205DB00D3585B0C2B
:102500009843FFF78DFF10BD70B53D4CA0232068A8
:1025100003210200C132FF32DB059200D1500122BB
:102520001500854037481D5066683500C135FF35B8
:10253000AD00E9501500B5401D50A5682C00C13410
:10254000FF34A400E1501400AC401C502E4C256810
:102550002800C130FF308000C1501000A8400500A5
:10256000A120C0001D5066683500C135FF35AD00A3
:10257000E9501500B5401D50A6683500C135FF353E
:10258000AD00E9501500B5401D50E6683500C13575
:10259000FF35AD00E9501500B5401D5026693500E6
:1025A000C135FF35AD00E9501500B5401D506669D5
:1025B0003500C135FF35AD00E9501500B5401D505F
:1025C000A6693500C135FF35AD00E9501500B540AD
:1025D0001D50E6693500C135FF35AD00E9501500E5
:1025E000B5401D50256A2C00AA40C134FF34A40018
:1025F000E1501A50002205495A5024315A5070BDFA
:10260000040200200C050000000100204407000027
:10261000A020A221012270B5C005C90043581400B2
:10262000415810001500890E08408C4309495B0C85
:102630000E689D431340334301D1074B1A60074A8C
:102640000D601368184302D10121054B1960146015
:1026500070BDC0463C020020501300204002002004
:102660003C13002070B57B497B480A68A025531CA9
:10267000920084580122A240784CED050B602A514B
:10268000042B01D100230B6001242500744A5B0058
:102690009B5A744A1668B540A026F6051C4200D025
:1026A00074E0A124E4003551012425005668B540AA
:1026B0005E08344200D073E0A026A124F605E400B1
:1026C0003551012425009668B5409E08344200D05B
:1026D00072E0A026A124F605E4003551012425006E
:1026E000D668B540DE08344200D071E0A026A124AF
:1026F000F605E4003551012425001669B5401E0990
:10270000344200D070E0A026A124F605E400355143
:10271000012425005669B5405E09344200D06FE0BF
:10272000A026A124F605E400355101242500966970
:10273000B5409E09344200D06EE0A026A124F605E3
:10274000E400355101242500D669B540DE09344244
:1027500000D06DE0A026A124F605E4003551012447
:102760002500126A1B0A95401C4200D16CE0A0248F
:102770003A4BE405E5500B68A0219B00C2580123A9
:102780009340A122C905D2008B5070BD334C355106
:10279000012425005668B5405E08344200D18BE71D
:1027A000A0262E4CF6053551012425009668B5402B
:1027B0009E08344200D18CE7A026284CF6053551FE
:1027C00001242500D668B540DE08344200D18DE7EB
:1027D000A026224CF6053551012425001669B54086
:1027E0001E09344200D18EE7A0261C4CF605355157
:1027F000012425005669B5405E09344200D18FE7B7
:10280000A026164CF6053551012425009669B540E1
:102810009E09344200D190E7A026104CF6053551B0
:1028200001242500D669B540DE09344200D191E784
:10283000A0260A4CF605355101242500126A1B0A10
:1028400095401C4200D092E7A024A123E405DB00C0
:10285000E55090E744020020040200200C0500002F
:102860004413002000010020F0B5C64600B5204CFE
:10287000051E266805DA731C23602D233370266835
:1028800045420A21280000F07FF90A2100F062FA8F
:10289000280088460A2100F05DFA28000F00642114
:1028A00000F072F9134D02002900300001F0F6FC2F
:1028B00023689C46434660443B4315D0431C236039
:1028C0002E23037042462900206801F0E7FC2368AC
:1028D0009C4660442060002F07D03A00290001F098
:1028E000DDFC23689C466044206004BC9046F0BD3B
:1028F00040130020704B000070B5FFF79BFD104D9A
:10290000104C2C60FFF7B0FF0F49286801F0C6FC9F
:10291000200001F0E3FC0500F020FEF70FF8E8B21C
:10292000FEF70CF8002D06DD2D1920780134FEF796
:1029300005F8AC42F9D1ED20FEF700F870BDC046B5
:1029400040130020541300206C4B000003210A4860
:1029500002680A430260094802680A4302600849A3
:10296000084A094B9B1A03DD043BC858D050FBDCD6
:1029700000F012F8FDF7C8FB2405004054050040A4
:10298000204D0000000000201C020020FEE7FEE7B2
:10299000FEE7FEE7FEE7FEE72C4B1B78012B00D09D
:1029A00070472B4B1B681B07FAD1F022294B1B6881
:1029B000134001D0102B46D1274B1B6813421FD068
:1029C000F022244B1B681340402B29D0F022214BCE
:1029D0001B681340A02B01D0D02BE1D1F0231E4A5D
:1029E00012681A42DCD11D4A1368012B04D01C4B1B
:1029F00013601368012BFCD1C0221A4B1A60CFE779
:102A0000194B1A4A1A608022194B12021A600F4B96
:102A10001B78012BC4D10E4B1B681B07D0D0BFE71E
:102A20000D4B1B681342D1D18022C1230121DB0051
:102A3000D205D150054B1B78012BB1D1044B1B683B
:102A40001B07C3D0ACE7302BB6D0B9E7E00F00F0DE
:102A5000E40F00F0E80F00F0EC0F00F000EC06408F
:102A60007593000014EC064004050040DFFF07C02A
:102A7000186C0040002243088B4274D303098B4238
:102A80005FD3030A8B4244D3030B8B4228D3030C3E
:102A90008B420DD3FF22090212BA030C8B4202D3E0
:102AA0001212090265D0030B8B4219D300E0090A08
:102AB000C30B8B4201D3CB03C01A5241830B8B4211
:102AC00001D38B03C01A5241430B8B4201D34B03FA
:102AD000C01A5241030B8B4201D30B03C01A52415F
:102AE000C30A8B4201D3CB02C01A5241830A8B42E4
:102AF00001D38B02C01A5241430A8B4201D34B02CD
:102B0000C01A5241030A8B4201D30B02C01A524130
:102B1000CDD2C3098B4201D3CB01C01A52418309E4
:102B20008B4201D38B01C01A524143098B4201D31E
:102B30004B01C01A524103098B4201D30B01C01A49
:102B40005241C3088B4201D3CB00C01A52418308C3
:102B50008B4201D38B00C01A524143088B4201D3F0
:102B60004B00C01A5241411A00D201465241104650
:102B70007047FFE701B5002000F0F0F802BDC04645
:102B80000029F7D076E7704703460B437FD4002235
:102B900043088B4274D303098B425FD3030A8B42F1
:102BA00044D3030B8B4228D3030C8B420DD3FF225B
:102BB000090212BA030C8B4202D31212090265D029
:102BC000030B8B4219D300E0090AC30B8B4201D3DC
:102BD000CB03C01A5241830B8B4201D38B03C01A23
:102BE0005241430B8B4201D34B03C01A5241030B9A
:102BF0008B4201D30B03C01A5241C30A8B4201D34B
:102C0000CB02C01A5241830A8B4201D38B02C01AF5
:102C10005241430A8B4201D34B02C01A5241030A6C
:102C20008B4201D30B02C01A5241CDD2C3098B4251
:102C300001D3CB01C01A524183098B4201D38B01CE
:102C4000C01A524143098B4201D34B01C01A524171
:102C500003098B4201D30B01C01A5241C3088B42B6
:102C600001D3CB00C01A524183088B4201D38B00A1
:102C7000C01A524143088B4201D34B00C01A524143
:102C8000411A00D201465241104670475DE0CA0F1A
:102C900000D04942031000D34042534000229C46DA
:102CA00003098B422DD3030A8B4212D3FC228901E4
:102CB00012BA030A8B420CD3890192118B4208D3BA
:102CC000890192118B4204D389013AD0921100E01C
:102CD0008909C3098B4201D3CB01C01A5241830930
:102CE0008B4201D38B01C01A524143098B4201D35D
:102CF0004B01C01A524103098B4201D30B01C01A88
:102D00005241C3088B4201D3CB00C01A5241830801
:102D10008B4201D38B00C01A5241D9D243088B4257
:102D200001D34B00C01A5241411A00D201466346FA
:102D300052415B10104601D34042002B00D549425E
:102D4000704763465B1000D3404201B5002000F09D
:102D500005F802BD0029F8D016E770477047C04655
:102D6000F8B54C02640A4746A0464C00C90FCE464F
:102D700089464146430246005B0A360E240E80B562
:102D8000C50F9C463200D800C900371B4D4560D0A6
:102D9000002F48DD002C00D17CE0FF2E00D183E025
:102DA0008023DB04194301231B2F07DC0B002022A7
:102DB000FB40D71BB9404A1E91410B43C31A5A012D
:102DC00000D4A8E09B019C09200001F00DFA053811
:102DD0008440864200DDADE0861B220020200136C3
:102DE000F240861BB44023005C1EA341002613431F
:102DF0005A0704D00F221A40042A00D004335A0183
:102E000000D48BE00136F2B2FF2E00D18FE09B019F
:102E10005B0A5B02D205580AED07104328430CBC3D
:102E200090469946F8BD002F49D1FE24771C3C42BC
:102E300000D086E0002E00D0DEE0002800D1D1E0F6
:102E40000029E6D0431A5C0100D4F1E00B1A4D468C
:102E5000CEE7002F4ADD002C3FD0FF2E24D0802368
:102E6000DB04194301231B2F07DC0B002022FB404E
:102E7000D71BB9404A1E91410B431B185A014AD532
:102E80000136FF2E53D0012271491A405B080B40D6
:102E90001343ADE7002943D0013F431A002F00D16F
:102EA0008DE7FF2E00D07EE76346002B3FD08023C6
:102EB0006246DB0313435B025B0AFF22A9E7A21B06
:102EC000002E60D1002878D0013A002A00D1B5E068
:102ED000FF2C5DD14D46C446E6E7002920D0013FD6
:102EE0004318002FCAD0FF2EBCD1DDE7002F32D10E
:102EF000FE24013634427AD1002A62D1002800D162
:102F0000A0E0002900D184E7431800265A0102D529
:102F1000504A013613405A0700D06BE7DB089C4645
:102F2000FF2EC1D063465B025B0AF2B271E7FF225B
:102F300000236EE7474B361A23405A0700D059E763
:102F4000ECE7441A630161D4002C00D03CE7002573
:102F5000002200235DE7A21B002E28D100282DD0DF
:102F6000013A002A70D0FF2CB5D001231B2A07DCC0
:102F700003002026D340B21A9040421E90410343E2
:102F80005B1826007AE7FF2CA4D08023DB041843CB
:102F900001231B2A07DC03002025D340AA1A9040F6
:102FA000421E90410343CB1A4D46260007E7FF2CF3
:102FB00091D08023DB041843D7E74D46C446260052
:102FC000AEE7002887D0002900D16DE78023624654
:102FD000DB031A4200D167E742461A4200D063E79A
:102FE000C44661E7002926D04D46434611E7FF2E2F
:102FF0009DD043185B088EE700280AD1002900D035
:1030000068E780230025DB03FF2202E70C1A4D4608
:10301000DAE6002900D147E780236246DB031A4243
:1030200000D141E742461A4200D03DE74D4652E703
:10303000002B00D06FE700250023EAE60B1A4D466F
:103040002600BCE64346E4E64318260016E7C046E1
:10305000FFFFFF7DFFFFFFFBF0B54F464646D6461C
:1030600044024500C0B5640A0F1C2D0EC60F002D8A
:103070004FD0FF2D55D08023E400DB041C430023F8
:1030800099469A467F3D7B0278005B0A9846000E7F
:10309000FF0F002831D0FF2810D08022DB00D2049F
:1030A0001A43904600217F382D1A4B4632000B43BD
:1030B00071489B00C3587A40D2B29F46FF3D002B17
:1030C00054D102234946194332000B007A40033B96
:1030D000D2B20C2B04D869499B00CB589F463A00CA
:1030E000002000246402C305600AD207184310437D
:1030F0001CBC90469946A246F0BD002B2BD1012363
:103100004946320019438B005D497A40CB58D2B210
:103110009F46002C13D104239946033B00259A4671
:10312000B1E7002C05D108239946063BFF259A46B6
:10313000A9E70C239946093BFF259A46A3E72000FF
:1031400001F052F87625431F9C4000236D422D1A52
:1031500099469A4697E7180001F046F84246431F01
:103160009A402D189046763500219EE703219CE772
:1031700017003A00FF200024B4E780240022E40373
:10318000FF20AFE732005346022BF1D0032B6CD067
:10319000012BA5D028007F30002846DD630704D02E
:1031A0000F232340042B00D00434230103D528002F
:1031B000344B80301C40FE28DCDCA401640AC0B221
:1031C00090E78023DB031C4227D042461A4224D1D9
:1031D00044461C436402640A3A00FF2082E73A0036
:1031E00044468A46CFE7414663014C01A34235D2AB
:1031F0001B200021013D01271E0049005B00002E1D
:1032000001DB9C4201D81B1B394301380028F3D154
:103210001C00631E9C410C43BCE78023DB031C4362
:103220006402640A3200FF205CE70123181A1B289D
:1032300000DD55E79E352300AC40C340611E8C4144
:103240001C43630704D00F232340042B00D0043415
:10325000630107D4A401640A002043E71B1B1A2062
:103260000121C8E7012000243CE78023DB031C4345
:103270006402640AFF2035E7744B0000B44B000081
:10328000E84B0000FFFFFFF7F0B54F464646D64635
:1032900044024500C0B58846640A2D0EC70F002DB4
:1032A00049D0FF2D4FD08023E400DB041C430023D2
:1032B00099469A467F3D434642465E02D20F5B00E6
:1032C000760A1B0E904646D0FF2B12D0802200209B
:1032D000F600D2047F3B1643ED186A1C4346944621
:1032E0004A467B400F2A00D974E0704992008A5800
:1032F0009746FF35002E54D14A4602231A43914681
:103300000220EAE74346340082465246022A2AD087
:10331000032A00D1C3E0012A00D082E00022002469
:103320006402D205600ADB07104318431CBC9046B8
:103330009946A246F0BD002C27D104239946033BB1
:1033400000259A46B7E7002C19D108239946063B79
:10335000FF259A46AFE7002E08D14A4601231A43BB
:1033600091460120B9E7FF220024D9E7300000F0A0
:103370003BFF431F2D1A9E40763D0020ADE70C23F6
:103380009946093BFF259A4695E7200000F02CFF5F
:103390007625431F9C4000236D422D1A99469A467C
:1033A00089E74A4603231A439146032095E73B00E9
:1033B000ABE780240023E403FF22B1E78023DB0393
:1033C0001C4245D01E4243D133435C02640A43464B
:1033D000FF22A5E7200C2404210C0F00320C360438
:1033E000360C774351434643504389193A0C5218DF
:1033F000964203D980214902884640443F04110483
:103400003F0CC9198C01661EB441890E2143140C6E
:103410002418A4010C4322013CD501226108144068
:103420000C4360467F3000281ADD620704D00F226B
:103430002240042A00D00434220103D560461C4AED
:1034400080301440FE288EDCA401640AC2B267E713
:103450008020C00304436402640A3B00FF225FE74C
:103460000122101A1B2800DD58E762469E32210017
:103470009440C140621E94410C43620704D00F2265
:103480002240042A00D00434620105D4A401640A55
:10349000002245E7AC46C4E70122002440E7802231
:1034A000D20314436402640AFF2239E7204C00006F
:1034B000FFFFFFF741024200C30F490A120E00202E
:1034C0007E2A03D99D2A02D9094A9818704780207C
:1034D00000040143952A07DC9620821AD140484215
:1034E000002BF3D10800F1E7963A9140F7E7C04688
:1034F000FFFFFF7F70B5002812D0C317C5185D40CD
:10350000C40F280000F070FE9E22121A962A11DCC9
:10351000D2B2082833DD083885406802400A02E04C
:103520000024002200204002D205400AE407104394
:10353000204370BD992A0BDD052329001B1AD940B1
:1035400003001B339D402B005D1EAB4119430D0052
:10355000052801DD431F9D402B000A490B406E07E3
:1035600009D00F263540042D05D004335D0102D566
:103570009F220B40121A9B01580AD2B2D3E768026D
:10358000400AD0E7FFFFFFFB70B5041E0DD000F02E
:103590002BFE9E22121A962A0EDCD2B208282EDDAD
:1035A000083884406002400A01E000220020400206
:1035B000D205400A104370BD992A09DD030021009D
:1035C0001B3399404B1E994105231B1ADC400C43C9
:1035D000052801DD431F9C4023000A490B40650775
:1035E00009D00F252C40042C05D004335C0102D5F2
:1035F0009F220B40121A9B01580AD2B2D7E76002F1
:10360000400AD4E7FFFFFFFBF0B557464E4645465C
:10361000DE46E0B50F0381461E0004003B0B480068
:1036200085B092469846400DCD0F002800D1B6E0F7
:103630008B4B984200D1D2E04346670FDB001F431B
:1036400080231B041F43874B00979B46002398460B
:10365000E4008344019333031B0B994673005246E5
:103660005B0DF60F002B00D178E07D498B421AD01C
:10367000510F4A467B48D200114384468022584667
:1036800012046344C31A114352469B460020D200E1
:103690002B0073409A4643460F2B00D9F4E0724F3B
:1036A0009B00FB589F464B46514619436F4B9C4627
:1036B000E344002900D0B5E0424602231A43904675
:1036C00002200022E4E73500140000910190019BE4
:1036D000022B00D112E2032B00D175E2012B1DD089
:1036E000AA46634E5E44002E00DCE0E1630700D092
:1036F00015E2E408009AD30105D580265D4BF6005B
:103700001A4000925E445C4B9E4223DC009A760590
:10371000530757021C433F0B730D03E0AA460023D7
:103720000027002400213F033E0B0F0D3F053743C8
:103730001E05524B20001F4053463E437600DB07D8
:1037400076081E43310005B03CBC90469946A2461F
:10375000AB46F0BD424B00270024E3E74946114346
:1037600059D04B46002B00D190E1484600F03CFD7B
:1037700002000B3A08235B429C4684446346494658
:1037800099401D239B1A5246DA4063461143524624
:103790009A403B4B58449B468344002078E71F00E7
:1037A000274300972FD04346002B00D15EE14046CF
:1037B00000F01AFD02000B3A1D2301009B1A474638
:1037C0004A464C4608398F40DA408C4017430097F0
:1037D0002C4B1B1A9B460023984601933BE74F4610
:1037E00043461F43009706D108239846063B002412
:1037F000834601932FE7434600930C239846093BE9
:103800008346019327E70423984600239B46013310
:10381000002401931FE7424601231A4390460120EA
:10382000002235E7414603231943884603204946D1
:103830002EE7002380279A463F030024084B71E7B8
:10384000802300981B03184200D1EAE0194200D0FF
:10385000E7E00B431F033F0BB2461400004B61E748
:10386000FF07000001FCFFFF604C000001F8FFFFB4
:10387000FF030000FFFFFFFEFE070000FFFF0F80B9
:10388000F30300000DFCFFFF009B994200D2E6E02D
:1038900000D1E1E001235B429C4625000026009810
:1038A000E344130E09020B439946130298464B4614
:1038B0001C0C1B041B0C21000193FFF761F9019AFA
:1038C0000B044243290C070019438A4207D9494493
:1038D000013F894503D88A4201D9871E4944881A85
:1038E0002100FFF74DF909048C4629046546019A29
:1038F000090C4243030029438A4204D94944013B4D
:10390000894500D805E13F041F43891A43463A0020
:10391000380C00971F0C130442461204150C2A00A1
:103920001B0C5A4302977B43039545437843170C7E
:10393000BC465B1963449D4203D980256D02AC46A9
:1039400060441D0C281815041B042D0C5D198142C0
:1039500072D36FD0751B091AAE428041A14E40420E
:10396000081A5E44814500D100E12100FFF708F903
:103970000200019B07005A430B04290C19438A4299
:1039800008D94944013F894504D88A4202D9831E97
:103990001F004944881A2100FFF7F2F8019A0C042D
:1039A00042432904090C030021438A4207D94944B0
:1039B000013B894503D88A4201D9831E4944039DAE
:1039C0003C041C432B00891A2204120C5343029F0F
:1039D000200C45437A4378431F0CBC46521962447D
:1039E000954203D980256D02AC466044150C1B043A
:1039F00012041B0C2818D218814206D302D00123CE
:103A00001C4370E6002A00D16DE64944631E494517
:103A100000D296E0814200D2ADE000D1DDE01C0092
:103A2000EDE78026009F360337433F033F0BAA464E
:103A30006D4B77E6AE428DD2009B46445A1E4645FA
:103A40009B415B424B44C91889455CD2884200D9EE
:103A500082E07ED000927DE7A24200D91AE7009B67
:103A60006508DF0758083D43E6071AE7484600F0B7
:103A7000BBFB03001A00153220301C2A00DC9BE639
:103A80004F46083B9F4000240097A1E6504600F0B7
:103A9000ABFB03001A00153220301C2A00DC69E65B
:103AA0005146083B9940002273E6012464420121FB
:103AB000891B382900DD32E61F2966DC009D2200C3
:103AC0002B004A48CA405844834084401343621E36
:103AD0009441CD4023432F005A0709D00F221A40AA
:103AE000042A05D01A1D9A429B415B42FF1813001D
:103AF0003A0262D501230027002413E6AA463A4B76
:103B0000002700240EE68945A4D1B0459ED9009235
:103B100020E78A4200D8F6E6831E4944F3E60F23E5
:103B20002340042B00D1E4E505235B42A3429B41E3
:103B300004345B42E408009A94469C446346009334
:103B4000D8E51C00814200D059E7424500D056E735
:103B5000C9E5B54200D87DE7009B4644023B00938F
:103B600046459B415B424B44C918F3E6002E9CDD61
:103B700000240123DFE743465D0045459B415B424E
:103B80004B44023CC918A846DCE71F225242961B50
:103B9000009A1300F340202903D01548584482406E
:103BA0001443621E94412343072400271C4007D07E
:103BB0000F2200271A40042A94D17C077F023F0B72
:103BC000DB081C430023ADE58023009F1B031F433C
:103BD0003F033F0BAA46044BA4E59045CBD31C0002
:103BE000B3E7C046FF030000FF0700001E0400000B
:103BF0003E040000F0B557464E464546DE46E0B569
:103C00000C0381461F000500230B480087B0924635
:103C10009846400DCE0F002800D17CE07D4B9842A5
:103C200000D196E043466C0FDB001C4380237A4AA8
:103C30001B041C43944603006344019300239846ED
:103C40009B46ED003B031B0B99467A00FB0F514648
:103C5000520D029300D187E06E4B9A4222D06E48FB
:103C60004B0F844601986244844649469444624618
:103C7000C9000B4380210192002209040B435146E5
:103C80009446C900320002984240019801300390E6
:103C900040460F2800D9C7E08000804647465F486D
:103CA000C05987464A4653465A4813438446019AA8
:103CB00062440192002B00D08CE002224146114365
:103CC000884694460021DDE7029A1C000D00E34679
:103CD0005B46022B6BD0032B00D1FFE1012B00D000
:103CE00065E100260024002500212403230B0C0D90
:103CF00024051C434A4B3605234033435B00D2075F
:103D00005B0813432800190007B03CBC9046994655
:103D1000A246AB46F0BD1C002C4353D04346002BBB
:103D200000D181E1404600F05FFA02000B3A1D230A
:103D300001009B1A44464A464D4608398C40DA40F9
:103D40008D401443374B1B1A0193002398469B4622
:103D500078E74C4643461C432DD108239846063B42
:103D6000002501909B466DE74B4601220B43A5D0F1
:103D70004B46002B00D147E1484600F035FA0200DF
:103D80000B3A1D27BA1A57460100D7405246083948
:103D90004B468A408B4011003B43019A214F101A39
:103DA000BC46020062440192002294466AE7194E22
:103DB0000024002598E70C2344469846093B0190CF
:103DC0009B463FE7042398460023019301330025D7
:103DD0009B4637E7032342461A43904603224B464D
:103DE00094464FE7320073E7802400222403002525
:103DF000084E79E780221203144200D1FCE01342FE
:103E000000D0F9E01A431403240B029A0D00014E6E
:103E10006AE7C046FF07000001FCFFFFA04C00005E
:103E2000FFFF0F800DFCFFFF2F0C2D042D0C280031
:103E30000E0C0904090C484380460800784381466B
:103E40003000784302902800704384464046000CBE
:103E50008246CC44D444E14507D90298824680206A
:103E600040028146CA44504602906046000C834698
:103E700060460004844640460004000C80466046CC
:103E800040440490180C804628001B041B0C584327
:103E9000844618007843814640467843824640462F
:103EA000454360464D44070C7D19A94503D9802040
:103EB00040028146CA4460462F0CBA4407043F0CB6
:103EC0002D04ED19AB445846270C2404240C05900E
:103ED000200048437943894639008446000C8346D4
:103EE000714366434E445E44B14503D9802040028D
:103EF00081464944300C814660460004000C8446EB
:103F0000200058434944814640467843360466447D
:103F100084464046444348467B43070CE4183C191A
:103F2000A34203D980235B029846C4440598029BB0
:103F3000804648460004000C43448146AB42AD41F4
:103F40009B19B342B64127044F446D425744781938
:103F5000804676428B46B146C344D9445745BF415B
:103F6000A845AD418B458941B145B6416D427F427F
:103F70002F43240C4942764231433C196418494688
:103F80006444C90D64020C4304995D020D43691E2B
:103F90008D41DB0D1D434B465B021D43E3017AD58A
:103FA00001216B080D401D43E3071D4364084F4B7F
:103FB0000399CE18002E46DD6B0709D00F2129404A
:103FC000042905D02B1DAB42AD416D4264191D0083
:103FD000E30105D5464B03991C408023DB00CE1836
:103FE00044498E4200DDE2E66307ED08640276058F
:103FF0001D43240B760D77E680231B031C4324030B
:104000003200240B3C4E6FE6504600F0EDF8030002
:104010001A00153220301C2A00DCB2E65246083B5A
:104020009A4000211300B8E6484600F0DDF803008E
:104030001A00153220301C2A00DC78E64C46083B7A
:104040009C4000257EE60121891B382900DD48E6D9
:104050001F2923DC294B2E009C46039BCE40634442
:104060001800230085408340681E854133432B435D
:10407000CC40590709D00F211940042905D0191D3A
:1040800099429B415B42E4180B0021021FD5012697
:104090000024002528E6019B039388E71F235B4249
:1040A0009E1B2300F340202905D015498C46039917
:1040B00061448C402543691E8D412B430725002414
:1040C0001D4007D00F21002419400429D7D16507CE
:1040D0006402240BDB081D43002605E680231B0336
:1040E0001C432403240B044EFEE5C046FF030000DE
:1040F000FFFFFFFEFE070000FF0700001E04000098
:104100003E04000030B5144D0A034B00120B5B0D4A
:10411000C90F0024AB4204DD104CA34203DD104B59
:10412000CC18200030BD8024640322430D4CE41AD7
:104130001F2C08DD0C48C31ADA4013005C4200292A
:10414000EFD11C00EDE7094DE040AC4663449A40D6
:1041500013000343F2E7C046FE0300001D04000005
:10416000FFFFFF7F3304000013040000EDFBFFFF9F
:1041700070B5002818D0C317C5185D40C40F2800BB
:1041800000F032F8164B1B1A5B055E0D0A2820DC86
:1041900003002A0015339A4013000B22101A2A003C
:1041A000C2401203120B03E0002400260022002369
:1041B000002112031800130B0A0D0A4D12051A43B1
:1041C0002A40330513435B00E4075B0823431900CF
:1041D00070BD2A000B3882401203120B0023E7E760
:1041E0001E040000FFFF0F801C2101231B049842C6
:1041F00001D3000C10391B0A984201D3000A083978
:104200001B09984201D30009043902A2105C40182E
:104210007047C046040302020101010100000000D2
:1042200000000000002310B59A4200D110BDCC5C04
:10423000C4540133F8E70000124B10B51C68A36B9F
:10424000002B0FD1182000F051F80F4BA063036032
:104250000E4B012243600E4B83600B2383810023AE
:1042600002614361A46B0B4A206961690A4B00F04B
:1042700037FC012200238018594120616161480008
:10428000400810BD000000200E33CDAB34126DE6A7
:10429000ECDE05002D7F954C2DF451580EB400B581
:1042A0000B499CB01DAB0290069007910491094800
:1042B000094904CB0591006802A9019300F02AF98D
:1042C0000023029A13701CB008BC03B01847C04604
:1042D000FFFFFF7F000000200802FFFF0023C25CF9
:1042E0000133002AFBD1581E7047000010B5034B64
:1042F0000100186800F04EF810BDC0460000002014
:1043000070B50500002910D00C1F2368002B00DABF
:10431000E418280000F0A4FB1D4A1368002B05D107
:1043200063601460280000F0A3FB70BDA34209D9AC
:10433000216860188342F3D118685B6841182160D6
:10434000EEE713005A68002A01D0A242F9D9196891
:104350005818A0420BD120680918581819608242D9
:10436000E0D110685268411819605A60DAE7A0423B
:1043700002D90C232B60D5E721686018824203D153
:10438000106852684118216062605C60CAE7C046EC
:1043900048020020F8B50323CD1C9D4308350600D4
:1043A0000C2D1FD20C25A9421ED8300000F058FB5E
:1043B00025490A681400002C1AD1244F3B68002BB1
:1043C00004D12100300000F01BFB386029003000D0
:1043D00000F016FB431C2AD10C233000336000F0A0
:1043E00047FB03E0002DDEDA0C2333600020F8BD2C
:1043F00023685B1B18D40B2B03D92360E4182560BA
:1044000003E06368A2420DD10B60300000F030FB86
:10441000200007220B30231D9043C21AE7D01B1A3D
:10442000A350E4E75360F0E722006468C3E7032386
:10443000C41C9C43A042E2D0211A300000F0E0FAF4
:10444000431CDCD1C8E7C046480200204C020020D3
:10445000F0B58E6885B007000C00039201939E4270
:104460003CD890238A89DB001A4234D0032509699D
:1044700023685B1A0293636902985D43EB0F5D1931
:10448000019B6D1001331B18AB4200D91D00530571
:1044900032D529003800FFF77DFF061E09D10C2315
:1044A0003B6040230120A28940421343A38105B011
:1044B000F0BD029A2169FFF7B5FEA389144A1A409C
:1044C00080231343A381029B2661F6182660656151
:1044D000019EED1AA560019B9E4200D9019E32000B
:1044E0000399206800F0A9FAA36800209B1BA36031
:1044F00023689E192660DAE72A00380000F0C0FA27
:10450000061EE0D121693800FFF7FAFEC7E7C04672
:104510007FFBFFFFF0B5A1B003901D008B890F005A
:1045200016001B0611D50B69002B0ED14021FFF799
:1045300031FF38603861002805D10C23039A013817
:10454000136021B0F0BD40237B61002308AC6361A0
:10455000203363761033A376079535002B78002B34
:1045600001D0252B46D1AB1B05930CD0320039006E
:104570000398FFF76DFF431C00D1AEE06269059B15
:104580009446634463612B78002B00D1A5E001229F
:1045900000235242626004A9543252186E1C2360F8
:1045A000E360A3601370A36531780522534800F0DF
:1045B00039FA751C00281FD12268D30604D553236D
:1045C00004A95B1820211970130704D5532304A9EB
:1045D0005B182B21197033782A2B16D03500002157
:1045E0000A20E3682A786E1C303A092A4ED900293D
:1045F00011D117E00135B1E7404B2268C01A012301
:104600008340134323602E00CEE7079B191D1B68D0
:104610000791002B01DB0B9304E05B42E360022374
:10462000134323602B782E2B0AD16B782A2B35D19C
:10463000079B02351A1D1B680792002B2BDB099381
:104640002F4E29780322300000F0ECF9002806D024
:104650004023801B8340226801351343236029785F
:10466000062228486E1C217600F0DCF900283CD098
:10467000254B002B25D10722079B07339343083393
:1046800007936369049A9B18636166E743430121BA
:104690009B183500A6E701235B42D0E700230A20E0
:1046A0001A000135636029786E1C3039092903D955
:1046B000002BC5D00992C3E74243012352183500AD
:1046C000F1E707AB00933A00104B2100039800E09C
:1046D00000BF0490049B0133D3D1BB890D985B06C6
:1046E00000D42EE7012040422BE707AB00933A00AD
:1046F000064B2100039800F079F8EAE7E04C00004F
:10470000E64C0000EA4C00000000000051440000AC
:10471000F7B5150001938A680B6900900C0093426D
:1047200000DA130022002B6043321278002A01D0F5
:1047300001332B6023689B0602D52B6802332B6064
:10474000062723681F4027D0230043331B785A1EB7
:1047500093412268920630D4220001994332009896
:10476000089EB047431C25D0062320682A68E168CC
:1047700003400025042B03D18D1AEB43DB171D40AA
:10478000A3682269934201DD9B1AED180027BD4200
:1047900020D1002010E00137E3682A689B1ABB4251
:1047A000D2DD22000123193201990098089EB047FA
:1047B000431CF0D101204042FEBD3020E1184331BE
:1047C000087021005A1C45310978A218433202337F
:1047D0001170C1E7220001231A3201990098089E46
:1047E000B047431CE6D00137D1E70000F0B58BB0ED
:1047F00006920A0043320793059004920A7E0C0049
:10480000109B6E2A00D1AFE020D8632A35D008D89B
:10481000002A00D1B5E0582A51D026004236327025
:1048200032E0642A01D0692AF7D1196820680A1D8C
:1048300005062BD50D681A60002D03DA2D23049A86
:104840006D4213706C4B0A27039352E0732A00D118
:104850009BE008D86F2A1FD0702ADED12022096879
:104860000A43226003E0752A16D0782AD5D12200A7
:10487000782145321170614A24E026001A684236D8
:10488000111D19601368337001238CE00D681A60E4
:104890004106D1D52DB2CFE719682568081D1860EB
:1048A0002E0601D50D6803E06D06FBD50D68ADB28F
:1048B000514B0A2703936F2A17D1082715E045317A
:1048C0000A704D4A03921A68216820CA1A600806C5
:1048D00044D5CB0702D52023194321601027002D92
:1048E00003D1202322689A4322602300002243330D
:1048F0001A706368A360002B03DB042221689143D4
:104900002160002D02D1049E002B0AD0049E3900A4
:104910002800FEF735F9039B013E5B5C3370AF4224
:1049200020D9082F09D12368DB0706D563682269DF
:10493000934202DC3023013E3370049B9B1B2361B6
:10494000079B09AA00932100069B0598FFF7E0FE4C
:10495000431C2DD1012040420BB0F0BD4806B8D514
:10496000ADB2B6E70500D2E71A680D68101D4969B7
:10497000186013682E0601D5196002E06D06FBD59C
:1049800019800023049E2361DAE71A68111D19605B
:10499000166800216268300000F044F8002801D059
:1049A000801B6060636823610023049A1370C7E76B
:1049B0002369320006990598079DA847431CC9D072
:1049C00023689B0715D4099BE0689842C4DA180055
:1049D000C2E722000123193206990598079EB047C5
:1049E000431CB7D00135E368099A9B1AAB42F0DC4F
:1049F000E9E70025F7E7C046F14C0000024D000052
:104A0000002370B5064C05000800236000F092F802
:104A1000431C03D12368002B00D02B6070BDC0461F
:104A2000D4130020C9B28218904201D100207047EF
:104A300003788B42FBD00130F6E710B5884202D9EB
:104A40008B18984203D3002307E08B5C8354013A10
:104A5000FBD210BDCC5CC45401339A42FAD1F8E7C2
:104A600010B5024800F032F810BDC046DC1300203B
:104A700010B5024800F02BF810BDC046DC13002032
:104A8000F8B507000D001600002905D11100FFF749
:104A900081FC04002000F8BD002A03D1FFF730FCA0
:104AA0003400F7E700F014F82C00B042F2D23100E5
:104AB0003800FFF76FFC041EECD029003200FFF72E
:104AC000B1FB29003800FFF71BFCE3E77047704794
:104AD0000B1F1B68181F002B01DA0B58C0187047FA
:104AE000F0B5CE46474615042D0C2E0080B50704C0
:104AF000140C3F0C9946030C7E435D4367436343AC
:104B00007F19340CE4199C46A54203D980235B022B
:104B10009846C4444B4643435143250C36046544F0
:104B2000360C2404A4195B19591820000CBC9046BB
:104B30009946F0BD044A1368002B03D01818106082
:104B400018007047014BF9E750020020E8130020DD
:104B5000F8B5C046F8BC08BC9E467047F8B5C046DC
:104B6000F8BC08BC9E467047040000200A00000004
:104B700025640000E631000074310000E0300000E0
:104B8000DE310000E03000007A310000E03000004B
:104B9000DE31000074310000743100007A31000011
:104BA000DE310000843100008431000084310000D7
:104BB000C231000072310000E03000007A310000A4
:104BC000E030000072310000E2300000E23000000E
:104BD0007A3100007231000084310000843100001D
:104BE00084310000C23100007431000074310000D3
:104BF000E0300000DE300000E03000007A310000DC
:104C0000E0300000DE30000074310000743100003C
:104C10007A310000DE300000843100008431000071
:104C2000D4330000063300000633000004330000D4
:104C30000A3300000A330000B233000004330000DE
:104C40000A330000B23300000A33000004330000CE
:104C5000AE330000AE330000AE330000BC330000C2
:104C600088380000543700001E370000C6360000A8
:104C70001E370000323800001E370000C636000024
:104C8000543700005437000032380000C6360000A8
:104C9000CE360000CE360000CE3600004038000090
:104CA000283E0000CA3C0000CA3C0000C83C00008E
:104CB000D03C0000D03C0000E83D0000C83C0000B3
:104CC000D03C0000E83D0000D03C0000C83C0000A3
:104CD000E43D0000E43D0000E43D0000F43D000040
:104CE000232D302B2000686C4C00656667454647D5
:104CF0000030313233343536373839414243444558
:104D000046003031323334353637383961626364C6
:084D10006566000000000000D0
:084D1800F0B3FF7F0100000071
:104D2000040000200000000000000000000000005F
:104D30000000000000000000000000000000000073
:104D40000000000000000000000000000000000063
:104D50000000000000000000000000000000000053
:104D60000000000000000000000000000000000043
:104D70000000000000000000000000000000000033
:104D8000000000009109000095090000B909000029
:104D9000F5090000210A0000310A00006D0A000038
:104DA000A90A0000ED0A0000C10B00000D0C000074
:104DB000610C000085170000DD1B00005918000081
:104DC000490D00008D0D00000D0D0000D10C0000FC
:104DD000251D0000010E0000210E0000410E000004
:104DE000990E0000F10E0000410F0000690F000055
:104DF000910F0000B50F0000D90F0000F90F00005F
:104E00001910000039100000591000008110000036
:104E1000A9100000D910000039170000851C0000FF
:104E2000040000000500000006000000070000006C
:104E300008000000090000000A0000000B0000004C
:104E40000C00000000000000010000000100000054
:104E50000800000000000000020000000100000047
:104E6000100000000000000004000000020000002C
:104E70000800000002000000100000000200000016
:104E800020000000020000004000000002000000BE
:104E9000800000000100000002000000000000008F
:104EA00000010000010000000400000002000000FA
:104EB00000010000010000000100000000000000EF
:104EC0008000000000000000400000000000000022
:104ED00020000000000000001000000000000000A2
:104EE00008000000020000000400000001000000B3
:104EF000400000000200000001000000010000006E
:104F0000200000000200000002000000F92800005C
:104F1000BD240000CD240000F12400006524000021
:104F2000912400000D0000000E0000000F000000A2
:0C4F30000024F400E9000000C1000000B3
:040000030000294D83
:00000001FF
